{
  "_format": "hh-sol-artifact-1",
  "contractName": "MedicalRecordSystem",
  "sourceName": "contracts/MedicalRecordSystem.sol",
  "abi": [
    {
      "inputs": [],
      "stateMutability": "nonpayable",
      "type": "constructor"
    },
    {
      "inputs": [
        {
          "internalType": "address",
          "name": "owner",
          "type": "address"
        }
      ],
      "name": "OwnableInvalidOwner",
      "type": "error"
    },
    {
      "inputs": [
        {
          "internalType": "address",
          "name": "account",
          "type": "address"
        }
      ],
      "name": "OwnableUnauthorizedAccount",
      "type": "error"
    },
    {
      "anonymous": false,
      "inputs": [
        {
          "indexed": true,
          "internalType": "address",
          "name": "patient",
          "type": "address"
        },
        {
          "indexed": true,
          "internalType": "address",
          "name": "doctor",
          "type": "address"
        },
        {
          "indexed": false,
          "internalType": "uint256",
          "name": "expiresAt",
          "type": "uint256"
        }
      ],
      "name": "AccessGranted",
      "type": "event"
    },
    {
      "anonymous": false,
      "inputs": [
        {
          "indexed": true,
          "internalType": "address",
          "name": "patient",
          "type": "address"
        },
        {
          "indexed": true,
          "internalType": "address",
          "name": "doctor",
          "type": "address"
        },
        {
          "indexed": false,
          "internalType": "string",
          "name": "purpose",
          "type": "string"
        },
        {
          "indexed": false,
          "internalType": "uint256",
          "name": "requestedAt",
          "type": "uint256"
        }
      ],
      "name": "AccessRequested",
      "type": "event"
    },
    {
      "anonymous": false,
      "inputs": [
        {
          "indexed": true,
          "internalType": "address",
          "name": "patient",
          "type": "address"
        },
        {
          "indexed": true,
          "internalType": "address",
          "name": "doctor",
          "type": "address"
        }
      ],
      "name": "AccessRevoked",
      "type": "event"
    },
    {
      "anonymous": false,
      "inputs": [
        {
          "indexed": true,
          "internalType": "address",
          "name": "doctor",
          "type": "address"
        }
      ],
      "name": "DoctorRevoked",
      "type": "event"
    },
    {
      "anonymous": false,
      "inputs": [
        {
          "indexed": true,
          "internalType": "address",
          "name": "doctor",
          "type": "address"
        },
        {
          "indexed": false,
          "internalType": "string",
          "name": "licenseNumber",
          "type": "string"
        }
      ],
      "name": "DoctorVerified",
      "type": "event"
    },
    {
      "anonymous": false,
      "inputs": [
        {
          "indexed": true,
          "internalType": "address",
          "name": "previousOwner",
          "type": "address"
        },
        {
          "indexed": true,
          "internalType": "address",
          "name": "newOwner",
          "type": "address"
        }
      ],
      "name": "OwnershipTransferred",
      "type": "event"
    },
    {
      "anonymous": false,
      "inputs": [
        {
          "indexed": true,
          "internalType": "bytes32",
          "name": "documentHash",
          "type": "bytes32"
        },
        {
          "indexed": true,
          "internalType": "address",
          "name": "patient",
          "type": "address"
        },
        {
          "indexed": true,
          "internalType": "address",
          "name": "issuedBy",
          "type": "address"
        },
        {
          "indexed": false,
          "internalType": "string",
          "name": "reportType",
          "type": "string"
        },
        {
          "indexed": false,
          "internalType": "uint256",
          "name": "issuedDate",
          "type": "uint256"
        }
      ],
      "name": "RecordSubmitted",
      "type": "event"
    },
    {
      "anonymous": false,
      "inputs": [
        {
          "indexed": true,
          "internalType": "address",
          "name": "user",
          "type": "address"
        },
        {
          "indexed": false,
          "internalType": "enum MedicalRecordSystem.Role",
          "name": "role",
          "type": "uint8"
        },
        {
          "indexed": false,
          "internalType": "string",
          "name": "licenseNumber",
          "type": "string"
        }
      ],
      "name": "UserRegistered",
      "type": "event"
    },
    {
      "inputs": [
        {
          "internalType": "bytes32",
          "name": "",
          "type": "bytes32"
        }
      ],
      "name": "accessRequests",
      "outputs": [
        {
          "internalType": "address",
          "name": "patient",
          "type": "address"
        },
        {
          "internalType": "address",
          "name": "requester",
          "type": "address"
        },
        {
          "internalType": "enum MedicalRecordSystem.AccessStatus",
          "name": "status",
          "type": "uint8"
        },
        {
          "internalType": "uint256",
          "name": "requestedAt",
          "type": "uint256"
        },
        {
          "internalType": "uint256",
          "name": "respondedAt",
          "type": "uint256"
        },
        {
          "internalType": "uint256",
          "name": "expiresAt",
          "type": "uint256"
        },
        {
          "internalType": "string",
          "name": "purpose",
          "type": "string"
        }
      ],
      "stateMutability": "view",
      "type": "function"
    },
    {
      "inputs": [
        {
          "internalType": "address",
          "name": "patientAddress",
          "type": "address"
        },
        {
          "internalType": "address",
          "name": "doctorAddress",
          "type": "address"
        }
      ],
      "name": "approveAccess",
      "outputs": [],
      "stateMutability": "nonpayable",
      "type": "function"
    },
    {
      "inputs": [
        {
          "internalType": "address",
          "name": "patientAddress",
          "type": "address"
        },
        {
          "internalType": "address",
          "name": "doctorAddress",
          "type": "address"
        }
      ],
      "name": "checkAccess",
      "outputs": [
        {
          "internalType": "bool",
          "name": "",
          "type": "bool"
        }
      ],
      "stateMutability": "view",
      "type": "function"
    },
    {
      "inputs": [
        {
          "internalType": "address",
          "name": "patientAddress",
          "type": "address"
        }
      ],
      "name": "getPatientRecordCount",
      "outputs": [
        {
          "internalType": "uint256",
          "name": "",
          "type": "uint256"
        }
      ],
      "stateMutability": "view",
      "type": "function"
    },
    {
      "inputs": [
        {
          "internalType": "address",
          "name": "patientAddress",
          "type": "address"
        }
      ],
      "name": "getPatientRecords",
      "outputs": [
        {
          "internalType": "bytes32[]",
          "name": "",
          "type": "bytes32[]"
        }
      ],
      "stateMutability": "view",
      "type": "function"
    },
    {
      "inputs": [
        {
          "internalType": "address",
          "name": "patientAddress",
          "type": "address"
        }
      ],
      "name": "getPendingRequests",
      "outputs": [
        {
          "internalType": "address[]",
          "name": "",
          "type": "address[]"
        }
      ],
      "stateMutability": "view",
      "type": "function"
    },
    {
      "inputs": [
        {
          "internalType": "bytes32",
          "name": "documentHash",
          "type": "bytes32"
        }
      ],
      "name": "getRecordDetails",
      "outputs": [
        {
          "internalType": "string",
          "name": "ipfsCID",
          "type": "string"
        },
        {
          "internalType": "string",
          "name": "reportType",
          "type": "string"
        },
        {
          "internalType": "string",
          "name": "issuingFacility",
          "type": "string"
        },
        {
          "internalType": "address",
          "name": "patient",
          "type": "address"
        },
        {
          "internalType": "address",
          "name": "issuedBy",
          "type": "address"
        },
        {
          "internalType": "uint256",
          "name": "issuedDate",
          "type": "uint256"
        },
        {
          "internalType": "uint256",
          "name": "approvedAt",
          "type": "uint256"
        },
        {
          "internalType": "bool",
          "name": "isDoctorVerified",
          "type": "bool"
        },
        {
          "internalType": "string",
          "name": "metadata",
          "type": "string"
        }
      ],
      "stateMutability": "view",
      "type": "function"
    },
    {
      "inputs": [
        {
          "internalType": "address",
          "name": "userAddress",
          "type": "address"
        }
      ],
      "name": "getUserRole",
      "outputs": [
        {
          "internalType": "enum MedicalRecordSystem.Role",
          "name": "",
          "type": "uint8"
        }
      ],
      "stateMutability": "view",
      "type": "function"
    },
    {
      "inputs": [
        {
          "internalType": "address",
          "name": "",
          "type": "address"
        },
        {
          "internalType": "address",
          "name": "",
          "type": "address"
        }
      ],
      "name": "hasAccess",
      "outputs": [
        {
          "internalType": "bool",
          "name": "",
          "type": "bool"
        }
      ],
      "stateMutability": "view",
      "type": "function"
    },
    {
      "inputs": [
        {
          "internalType": "address",
          "name": "doctorAddress",
          "type": "address"
        }
      ],
      "name": "isDoctorVerified",
      "outputs": [
        {
          "internalType": "bool",
          "name": "",
          "type": "bool"
        }
      ],
      "stateMutability": "view",
      "type": "function"
    },
    {
      "inputs": [
        {
          "internalType": "string",
          "name": "",
          "type": "string"
        }
      ],
      "name": "licenseToAddress",
      "outputs": [
        {
          "internalType": "address",
          "name": "",
          "type": "address"
        }
      ],
      "stateMutability": "view",
      "type": "function"
    },
    {
      "inputs": [],
      "name": "owner",
      "outputs": [
        {
          "internalType": "address",
          "name": "",
          "type": "address"
        }
      ],
      "stateMutability": "view",
      "type": "function"
    },
    {
      "inputs": [
        {
          "internalType": "address",
          "name": "",
          "type": "address"
        },
        {
          "internalType": "uint256",
          "name": "",
          "type": "uint256"
        }
      ],
      "name": "patientRecords",
      "outputs": [
        {
          "internalType": "bytes32",
          "name": "",
          "type": "bytes32"
        }
      ],
      "stateMutability": "view",
      "type": "function"
    },
    {
      "inputs": [
        {
          "internalType": "bytes32",
          "name": "",
          "type": "bytes32"
        }
      ],
      "name": "records",
      "outputs": [
        {
          "internalType": "bytes32",
          "name": "documentHash",
          "type": "bytes32"
        },
        {
          "internalType": "string",
          "name": "ipfsCID",
          "type": "string"
        },
        {
          "internalType": "string",
          "name": "reportType",
          "type": "string"
        },
        {
          "internalType": "string",
          "name": "issuingFacility",
          "type": "string"
        },
        {
          "internalType": "address",
          "name": "patient",
          "type": "address"
        },
        {
          "internalType": "address",
          "name": "issuedBy",
          "type": "address"
        },
        {
          "internalType": "uint256",
          "name": "issuedDate",
          "type": "uint256"
        },
        {
          "internalType": "uint256",
          "name": "approvedAt",
          "type": "uint256"
        },
        {
          "internalType": "bool",
          "name": "isDoctorVerified",
          "type": "bool"
        },
        {
          "internalType": "string",
          "name": "metadata",
          "type": "string"
        }
      ],
      "stateMutability": "view",
      "type": "function"
    },
    {
      "inputs": [
        {
          "internalType": "address",
          "name": "doctorAddress",
          "type": "address"
        },
        {
          "internalType": "string",
          "name": "licenseNumber",
          "type": "string"
        }
      ],
      "name": "registerDoctor",
      "outputs": [],
      "stateMutability": "nonpayable",
      "type": "function"
    },
    {
      "inputs": [
        {
          "internalType": "address",
          "name": "patientAddress",
          "type": "address"
        }
      ],
      "name": "registerPatient",
      "outputs": [],
      "stateMutability": "nonpayable",
      "type": "function"
    },
    {
      "inputs": [],
      "name": "renounceOwnership",
      "outputs": [],
      "stateMutability": "nonpayable",
      "type": "function"
    },
    {
      "inputs": [
        {
          "internalType": "address",
          "name": "patientAddress",
          "type": "address"
        },
        {
          "internalType": "string",
          "name": "purpose",
          "type": "string"
        },
        {
          "internalType": "uint256",
          "name": "durationDays",
          "type": "uint256"
        }
      ],
      "name": "requestAccess",
      "outputs": [],
      "stateMutability": "nonpayable",
      "type": "function"
    },
    {
      "inputs": [
        {
          "internalType": "address",
          "name": "patientAddress",
          "type": "address"
        },
        {
          "internalType": "address",
          "name": "doctorAddress",
          "type": "address"
        }
      ],
      "name": "revokeAccess",
      "outputs": [],
      "stateMutability": "nonpayable",
      "type": "function"
    },
    {
      "inputs": [
        {
          "internalType": "address",
          "name": "doctorAddress",
          "type": "address"
        }
      ],
      "name": "revokeDoctor",
      "outputs": [],
      "stateMutability": "nonpayable",
      "type": "function"
    },
    {
      "inputs": [
        {
          "internalType": "bytes32",
          "name": "documentHash",
          "type": "bytes32"
        },
        {
          "internalType": "string",
          "name": "ipfsCID",
          "type": "string"
        },
        {
          "internalType": "string",
          "name": "reportType",
          "type": "string"
        },
        {
          "internalType": "string",
          "name": "issuingFacility",
          "type": "string"
        },
        {
          "internalType": "address",
          "name": "patientAddress",
          "type": "address"
        },
        {
          "internalType": "uint256",
          "name": "issuedDate",
          "type": "uint256"
        },
        {
          "internalType": "string",
          "name": "metadata",
          "type": "string"
        }
      ],
      "name": "submitMedicalRecord",
      "outputs": [],
      "stateMutability": "nonpayable",
      "type": "function"
    },
    {
      "inputs": [],
      "name": "totalRecords",
      "outputs": [
        {
          "internalType": "uint256",
          "name": "",
          "type": "uint256"
        }
      ],
      "stateMutability": "view",
      "type": "function"
    },
    {
      "inputs": [
        {
          "internalType": "address",
          "name": "newOwner",
          "type": "address"
        }
      ],
      "name": "transferOwnership",
      "outputs": [],
      "stateMutability": "nonpayable",
      "type": "function"
    },
    {
      "inputs": [
        {
          "internalType": "address",
          "name": "",
          "type": "address"
        }
      ],
      "name": "users",
      "outputs": [
        {
          "internalType": "address",
          "name": "walletAddress",
          "type": "address"
        },
        {
          "internalType": "enum MedicalRecordSystem.Role",
          "name": "role",
          "type": "uint8"
        },
        {
          "internalType": "bool",
          "name": "isActive",
          "type": "bool"
        },
        {
          "internalType": "string",
          "name": "licenseNumber",
          "type": "string"
        },
        {
          "internalType": "uint256",
          "name": "registeredAt",
          "type": "uint256"
        }
      ],
      "stateMutability": "view",
      "type": "function"
    },
    {
      "inputs": [
        {
          "internalType": "bytes32",
          "name": "documentHash",
          "type": "bytes32"
        }
      ],
      "name": "verifyDocument",
      "outputs": [
        {
          "internalType": "bool",
          "name": "exists",
          "type": "bool"
        },
        {
          "internalType": "bool",
          "name": "isDoctorVerified",
          "type": "bool"
        },
        {
          "internalType": "address",
          "name": "issuedBy",
          "type": "address"
        },
        {
          "internalType": "string",
          "name": "reportType",
          "type": "string"
        },
        {
          "internalType": "uint256",
          "name": "approvedAt",
          "type": "uint256"
        }
      ],
      "stateMutability": "view",
      "type": "function"
    }
  ],
  "bytecode": "0x60806040523480156200001157600080fd5b5033806200003957604051631e4fbdf760e01b81526000600482015260240160405180910390fd5b62000044816200004b565b506200009b565b600080546001600160a01b038381166001600160a01b0319831681178455604051919092169283917f8be0079c531659141344cd1fd0a4f28419497f9722a3daafe3b4186f6b6457e09190a35050565b612c8580620000ab6000396000f3fe608060405234801561001057600080fd5b50600436106101735760003560e01c80635f6ea340116100de578063db95705b11610097578063f2ca0b4111610071578063f2ca0b411461041a578063f2fde38b1461042d578063f385c4bf14610440578063fe35089f1461045357600080fd5b8063db95705b146103d3578063e8f133df146103e6578063f05bfa7b146103f957600080fd5b80635f6ea3401461035d57806362e1f74514610370578063715018a6146103835780638da5cb5b1461038b57806394f0df611461039c578063a87430ba146103af57600080fd5b80631388c519116101305780631388c5191461024a5780631709ef071461025d57806318bd48471461028b57806327820851146102ab5780632f3f14e5146102eb57806344d2b4e71461033757600080fd5b806301e64725146101785780630416af27146101aa5780630a9682ad146101bf5780630b13acdf146101f657806310ff362d14610219578063125f897414610241575b600080fd5b61018b6101863660046123b2565b610477565b6040516101a19a9998979695949392919061241b565b60405180910390f35b6101bd6101b83660046124cd565b6106fd565b005b6101e86101cd3660046124cd565b6001600160a01b031660009081526004602052604090205490565b6040519081526020016101a1565b6102096102043660046124cd565b6107c8565b60405190151581526020016101a1565b61022c6102273660046123b2565b610832565b6040516101a1999897969594939291906124ef565b6101e860055481565b6101bd6102583660046124cd565b610c4f565b61020961026b36600461257d565b600760209081526000928352604080842090915290825290205460ff1681565b61029e6102993660046124cd565b610e2c565b6040516101a191906125b0565b6102de6102b93660046124cd565b6001600160a01b0316600090815260016020526040902054600160a01b900460ff1690565b6040516101a1919061261e565b61031f6102f93660046126cf565b80516020818301810180516002825292820191909301209152546001600160a01b031681565b6040516001600160a01b0390911681526020016101a1565b61034a6103453660046123b2565b610e98565b6040516101a1979695949392919061270c565b6101bd61036b36600461257d565b610f6c565b61020961037e36600461257d565b611085565b6101bd611234565b6000546001600160a01b031661031f565b6101e86103aa36600461276b565b611248565b6103c26103bd3660046124cd565b611279565b6040516101a1959493929190612795565b6101bd6103e13660046127de565b611346565b6101bd6103f436600461257d565b611710565b61040d6104073660046124cd565b50606090565b6040516101a19190612835565b6101bd610428366004612876565b6118f0565b6101bd61043b3660046124cd565b611bf7565b6101bd61044e3660046128c4565b611c35565b6104666104613660046123b2565b612047565b6040516101a1959493929190612995565b60036020526000908152604090208054600182018054919291610499906129c9565b80601f01602080910402602001604051908101604052809291908181526020018280546104c5906129c9565b80156105125780601f106104e757610100808354040283529160200191610512565b820191906000526020600020905b8154815290600101906020018083116104f557829003601f168201915b505050505090806002018054610527906129c9565b80601f0160208091040260200160405190810160405280929190818152602001828054610553906129c9565b80156105a05780601f10610575576101008083540402835291602001916105a0565b820191906000526020600020905b81548152906001019060200180831161058357829003601f168201915b5050505050908060030180546105b5906129c9565b80601f01602080910402602001604051908101604052809291908181526020018280546105e1906129c9565b801561062e5780601f106106035761010080835404028352916020019161062e565b820191906000526020600020905b81548152906001019060200180831161061157829003601f168201915b505050506004830154600584015460068501546007860154600887015460098801805497986001600160a01b03968716989690951696509294919360ff90911692909161067a906129c9565b80601f01602080910402602001604051908101604052809291908181526020018280546106a6906129c9565b80156106f35780601f106106c8576101008083540402835291602001916106f3565b820191906000526020600020905b8154815290600101906020018083116106d657829003601f168201915b505050505090508a565b610705612335565b60026001600160a01b038216600090815260016020526040902054600160a01b900460ff16600381111561073b5761073b6125f4565b1461077c5760405162461bcd60e51b815260206004820152600c60248201526b2737ba1030903237b1ba37b960a11b60448201526064015b60405180910390fd5b6001600160a01b038116600081815260016020526040808220805460ff60a81b19169055517fc7053e532de062d754b8ed96090affe0c4ba36dde0a699de7dd5185a9a9e7d0f9190a250565b600060026001600160a01b038316600090815260016020526040902054600160a01b900460ff166003811115610800576108006125f4565b14801561082c57506001600160a01b038216600090815260016020526040902054600160a81b900460ff165b92915050565b6060806060600080600080600060606000600360008c8152602001908152602001600020604051806101400160405290816000820154815260200160018201805461087c906129c9565b80601f01602080910402602001604051908101604052809291908181526020018280546108a8906129c9565b80156108f55780601f106108ca576101008083540402835291602001916108f5565b820191906000526020600020905b8154815290600101906020018083116108d857829003601f168201915b5050505050815260200160028201805461090e906129c9565b80601f016020809104026020016040519081016040528092919081815260200182805461093a906129c9565b80156109875780601f1061095c57610100808354040283529160200191610987565b820191906000526020600020905b81548152906001019060200180831161096a57829003601f168201915b505050505081526020016003820180546109a0906129c9565b80601f01602080910402602001604051908101604052809291908181526020018280546109cc906129c9565b8015610a195780601f106109ee57610100808354040283529160200191610a19565b820191906000526020600020905b8154815290600101906020018083116109fc57829003601f168201915b505050918352505060048201546001600160a01b03908116602083015260058301541660408201526006820154606082015260078201546080820152600882015460ff16151560a082015260098201805460c090920191610a79906129c9565b80601f0160208091040260200160405190810160405280929190818152602001828054610aa5906129c9565b8015610af25780601f10610ac757610100808354040283529160200191610af2565b820191906000526020600020905b815481529060010190602001808311610ad557829003601f168201915b505050505081525050905060008160e0015111610b445760405162461bcd60e51b815260206004820152601060248201526f149958dbdc99081b9bdd08199bdd5b9960821b6044820152606401610773565b80608001516001600160a01b0316336001600160a01b03161480610b7d57508060a001516001600160a01b0316336001600160a01b0316145b80610baf575060808101516001600160a01b0316600090815260076020908152604080832033845290915290205460ff165b80610bc457506000546001600160a01b031633145b610c005760405162461bcd60e51b815260206004820152600d60248201526c1058d8d95cdcc819195b9a5959609a1b6044820152606401610773565b80602001518160400151826060015183608001518460a001518560c001518660e00151876101000151886101200151995099509950995099509950995099509950509193959799909294969850565b610c57612335565b6001600160a01b038116610c9f5760405162461bcd60e51b815260206004820152600f60248201526e496e76616c6964206164647265737360881b6044820152606401610773565b60006001600160a01b038216600090815260016020526040902054600160a01b900460ff166003811115610cd557610cd56125f4565b14610d175760405162461bcd60e51b8152602060048201526012602482015271105b1c9958591e481c9959da5cdd195c995960721b6044820152606401610773565b6040805160a0810182526001600160a01b038381168083526001602080850182815285870183905286518083018852600080825260608801919091524260808801529384529190529390208251815492166001600160a01b03198316811782559351929390929183916001600160a81b031990911617600160a01b836003811115610da457610da46125f4565b021790555060408201518154901515600160a81b0260ff60a81b1990911617815560608201516001820190610dd99082612a52565b5060808201518160020155905050806001600160a01b03167f04221ffa167b8d0a33647e46ee4f6728f4fe3651e4d56715ed0941b12046147b6001604051610e219190612b12565b60405180910390a250565b6001600160a01b038116600090815260046020908152604091829020805483518184028101840190945280845260609392830182828015610e8c57602002820191906000526020600020905b815481526020019060010190808311610e78575b50505050509050919050565b6006602052600090815260409020805460018201546002830154600384015460048501546005860180546001600160a01b039687169796861696600160a01b90960460ff16959190610ee9906129c9565b80601f0160208091040260200160405190810160405280929190818152602001828054610f15906129c9565b8015610f625780601f10610f3757610100808354040283529160200191610f62565b820191906000526020600020905b815481529060010190602001808311610f4557829003601f168201915b5050505050905087565b610f74612335565b6001600160a01b0380831660009081526007602090815260408083209385168352929052205460ff16610fdf5760405162461bcd60e51b81526020600482015260136024820152724e6f2061636365737320746f207265766f6b6560681b6044820152606401610773565b60008282604051602001610ff4929190612b33565b60408051601f198184030181528282528051602091820120600081815260068352838120600101805460ff60a01b1916600160a11b1790556001600160a01b038881168083526007855285832091891680845291909452938120805460ff19169055909450919290917f825c8be24eb0df19500f63e86c29e7d0d951e73056b889b891d85e40938d9b6e91a3505050565b600080838360405160200161109b929190612b33565b60408051808303601f19018152828252805160209182012060008181526006835283812060e08601855280546001600160a01b0390811687526001820154908116948701949094529195509392909190830190600160a01b900460ff166002811115611109576111096125f4565b600281111561111a5761111a6125f4565b815260200160028201548152602001600382015481526020016004820154815260200160058201805461114c906129c9565b80601f0160208091040260200160405190810160405280929190818152602001828054611178906129c9565b80156111c55780601f1061119a576101008083540402835291602001916111c5565b820191906000526020600020905b8154815290600101906020018083116111a857829003601f168201915b505050919092525050506001600160a01b0380871660009081526007602090815260408083209389168352929052205490915060ff16801561121c575060018160400151600281111561121a5761121a6125f4565b145b801561122b57508060a0015142105b95945050505050565b61123c612335565b6112466000612362565b565b6004602052816000526040600020818154811061126457600080fd5b90600052602060002001600091509150505481565b6001602081905260009182526040909120805491810180546001600160a01b0384169360ff600160a01b8204811694600160a81b909204169290916112bd906129c9565b80601f01602080910402602001604051908101604052809291908181526020018280546112e9906129c9565b80156113365780601f1061130b57610100808354040283529160200191611336565b820191906000526020600020905b81548152906001019060200180831161131957829003601f168201915b5050505050908060020154905085565b600233600090815260016020526040902054600160a01b900460ff166003811115611373576113736125f4565b146113b75760405162461bcd60e51b815260206004820152601460248201527313db9b1e48191bd8dd1bdc9cc8185b1b1bddd95960621b6044820152606401610773565b33600090815260016020526040902054600160a81b900460ff166113ed5760405162461bcd60e51b815260040161077390612b5a565b6001600160a01b0383166114355760405162461bcd60e51b815260206004820152600f60248201526e125b9d985b1a59081c185d1a595b9d608a1b6044820152606401610773565b60016001600160a01b038416600090815260016020526040902054600160a01b900460ff16600381111561146b5761146b6125f4565b146114a85760405162461bcd60e51b815260206004820152600d60248201526c139bdd0818481c185d1a595b9d609a1b6044820152606401610773565b6001600160a01b038316600090815260076020908152604080832033845290915290205460ff16156115155760405162461bcd60e51b81526020600482015260166024820152751058d8d95cdcc8185b1c9958591e4819dc985b9d195960521b6044820152606401610773565b6000833360405160200161152a929190612b33565b60408051601f198184030181529190528051602090910120905060008082815260066020526040902060010154600160a01b900460ff166002811115611572576115726125f4565b036115bf5760405162461bcd60e51b815260206004820152601760248201527f5265717565737420616c72656164792070656e64696e670000000000000000006044820152606401610773565b6040805160e0810182526001600160a01b038616815233602082015290810160008152426020820152600060408201526060016115ff8462015180612b9b565b6116099042612bb2565b81526020908101859052600083815260068252604090819020835181546001600160a01b03199081166001600160a01b0392831617835593850151600183018054958616919092169081178255928501519193919290916001600160a81b03191617600160a01b836002811115611682576116826125f4565b0217905550606082015160028201556080820151600382015560a0820151600482015560c082015160058201906116b99082612a52565b50905050336001600160a01b0316846001600160a01b03167fdf0730bdf4dd4a09882c5773d4e85596fce627753de9ca2d89a35c5093d336388542604051611702929190612bc5565b60405180910390a350505050565b611718612335565b6000828260405160200161172d929190612b33565b60408051601f19818403018152918152815160209283012060008181526006909352908220909250906001820154600160a01b900460ff166002811115611776576117766125f4565b146117b85760405162461bcd60e51b8152602060048201526012602482015271139bc81c195b991a5b99c81c995c5d595cdd60721b6044820152606401610773565b60026001600160a01b038416600090815260016020526040902054600160a01b900460ff1660038111156117ee576117ee6125f4565b1461182a5760405162461bcd60e51b815260206004820152600c60248201526b2737ba1030903237b1ba37b960a11b6044820152606401610773565b6001600160a01b038316600090815260016020526040902054600160a81b900460ff166118695760405162461bcd60e51b815260040161077390612b5a565b6001818101805460ff60a01b1916600160a01b8302179055504260038201556001600160a01b038481166000818152600760209081526040808320948816808452948252918290208054600160ff19909116179055600485015491519182527f65d0cc1e52d49938ca4ad9f423c79c1b84d914b9a683fbc5d3f93ac3cc5635f59101611702565b6118f8612335565b6001600160a01b0382166119405760405162461bcd60e51b815260206004820152600f60248201526e496e76616c6964206164647265737360881b6044820152606401610773565b60008151116119845760405162461bcd60e51b815260206004820152601060248201526f131a58d95b9cd9481c995c5d5a5c995960821b6044820152606401610773565b60006001600160a01b038316600090815260016020526040902054600160a01b900460ff1660038111156119ba576119ba6125f4565b146119fc5760405162461bcd60e51b8152602060048201526012602482015271105b1c9958591e481c9959da5cdd195c995960721b6044820152606401610773565b60006001600160a01b0316600282604051611a179190612be7565b908152604051908190036020019020546001600160a01b031614611a745760405162461bcd60e51b8152602060048201526014602482015273131a58d95b9cd948185b1c9958591e481d5cd95960621b6044820152606401610773565b6040805160a0810182526001600160a01b0384811680835260026020808501918252600185870181905260608601889052426080870152600093845290529390208251815492166001600160a01b03198316811782559351929390929183916001600160a81b031990911617600160a01b836003811115611af757611af76125f4565b021790555060408201518154901515600160a81b0260ff60a81b1990911617815560608201516001820190611b2c9082612a52565b506080820151816002015590505081600282604051611b4b9190612be7565b90815260405190819003602001812080546001600160a01b039384166001600160a01b0319909116179055908316907f04221ffa167b8d0a33647e46ee4f6728f4fe3651e4d56715ed0941b12046147b90611baa906002908590612c03565b60405180910390a2816001600160a01b03167f98cc4114456f2005e9af8917ba0016555f82234258ffbd38c090cb97bb45777782604051611beb9190612c23565b60405180910390a25050565b611bff612335565b6001600160a01b038116611c2957604051631e4fbdf760e01b815260006004820152602401610773565b611c3281612362565b50565b600233600090815260016020526040902054600160a01b900460ff166003811115611c6257611c626125f4565b14611ca65760405162461bcd60e51b815260206004820152601460248201527313db9b1e48191bd8dd1bdc9cc8185b1b1bddd95960621b6044820152606401610773565b33600090815260016020526040902054600160a81b900460ff16611cdc5760405162461bcd60e51b815260040161077390612b5a565b86611d215760405162461bcd60e51b8152602060048201526015602482015274092dcecc2d8d2c840c8dec6eadacadce840d0c2e6d605b1b6044820152606401610773565b6000865111611d665760405162461bcd60e51b815260206004820152601160248201527012541194c810d251081c995c5d5a5c9959607a1b6044820152606401610773565b6001600160a01b038316611dbc5760405162461bcd60e51b815260206004820152601760248201527f496e76616c69642070617469656e7420616464726573730000000000000000006044820152606401610773565b60016001600160a01b038416600090815260016020526040902054600160a01b900460ff166003811115611df257611df26125f4565b14611e315760405162461bcd60e51b815260206004820152600f60248201526e125b9d985b1a59081c185d1a595b9d608a1b6044820152606401610773565b60008781526003602052604090206007015415611e885760405162461bcd60e51b81526020600482015260156024820152745265636f726420616c72656164792065786973747360581b6044820152606401610773565b60408051610140810182528881526020808201898152828401899052606083018890526001600160a01b03871660808401523360a084015260c083018690524260e084015260016101008401819052610120840186905260008c81526003909352939091208251815590519192909190820190611f059082612a52565b5060408201516002820190611f1a9082612a52565b5060608201516003820190611f2f9082612a52565b5060808201516004820180546001600160a01b039283166001600160a01b03199182161790915560a084015160058401805491909316911617905560c0820151600682015560e0820151600782015561010082015160088201805491151560ff199092169190911790556101208201516009820190611fae9082612a52565b5050506001600160a01b038316600090815260046020908152604082208054600181018255908352908220018890556005805491611feb83612c36565b9190505550336001600160a01b0316836001600160a01b0316887fca37b512210cef58f725b0d298611babd914a6a167eff7f5802a83a766e8d7cf8886604051612036929190612bc5565b60405180910390a450505050505050565b6000806000606060008060036000888152602001908152602001600020604051806101400160405290816000820154815260200160018201805461208a906129c9565b80601f01602080910402602001604051908101604052809291908181526020018280546120b6906129c9565b80156121035780601f106120d857610100808354040283529160200191612103565b820191906000526020600020905b8154815290600101906020018083116120e657829003601f168201915b5050505050815260200160028201805461211c906129c9565b80601f0160208091040260200160405190810160405280929190818152602001828054612148906129c9565b80156121955780601f1061216a57610100808354040283529160200191612195565b820191906000526020600020905b81548152906001019060200180831161217857829003601f168201915b505050505081526020016003820180546121ae906129c9565b80601f01602080910402602001604051908101604052809291908181526020018280546121da906129c9565b80156122275780601f106121fc57610100808354040283529160200191612227565b820191906000526020600020905b81548152906001019060200180831161220a57829003601f168201915b505050918352505060048201546001600160a01b03908116602083015260058301541660408201526006820154606082015260078201546080820152600882015460ff16151560a082015260098201805460c090920191612287906129c9565b80601f01602080910402602001604051908101604052809291908181526020018280546122b3906129c9565b80156123005780601f106122d557610100808354040283529160200191612300565b820191906000526020600020905b8154815290600101906020018083116122e357829003601f168201915b5050509190925250505060e081015161010082015160a08301516040909301518215159b919a50929850919650945092505050565b6000546001600160a01b031633146112465760405163118cdaa760e01b8152336004820152602401610773565b600080546001600160a01b038381166001600160a01b0319831681178455604051919092169283917f8be0079c531659141344cd1fd0a4f28419497f9722a3daafe3b4186f6b6457e09190a35050565b6000602082840312156123c457600080fd5b5035919050565b60005b838110156123e65781810151838201526020016123ce565b50506000910152565b600081518084526124078160208601602086016123cb565b601f01601f19169290920160200192915050565b60006101408c83528060208401526124358184018d6123ef565b90508281036040840152612449818c6123ef565b9050828103606084015261245d818b6123ef565b6001600160a01b038a81166080860152891660a085015260c0840188905260e0840187905285151561010085015283810361012085015290506124a081856123ef565b9d9c50505050505050505050505050565b80356001600160a01b03811681146124c857600080fd5b919050565b6000602082840312156124df57600080fd5b6124e8826124b1565b9392505050565b60006101208083526125038184018d6123ef565b90508281036020840152612517818c6123ef565b9050828103604084015261252b818b6123ef565b6001600160a01b038a811660608601528916608085015260a0840188905260c0840187905285151560e0850152838103610100850152905061256d81856123ef565b9c9b505050505050505050505050565b6000806040838503121561259057600080fd5b612599836124b1565b91506125a7602084016124b1565b90509250929050565b6020808252825182820181905260009190848201906040850190845b818110156125e8578351835292840192918401916001016125cc565b50909695505050505050565b634e487b7160e01b600052602160045260246000fd5b6004811061261a5761261a6125f4565b9052565b6020810161082c828461260a565b634e487b7160e01b600052604160045260246000fd5b600082601f83011261265357600080fd5b813567ffffffffffffffff8082111561266e5761266e61262c565b604051601f8301601f19908116603f011681019082821181831017156126965761269661262c565b816040528381528660208588010111156126af57600080fd5b836020870160208301376000602085830101528094505050505092915050565b6000602082840312156126e157600080fd5b813567ffffffffffffffff8111156126f857600080fd5b61270484828501612642565b949350505050565b6001600160a01b03888116825287166020820152600060038710612732576127326125f4565b8660408301528560608301528460808301528360a083015260e060c083015261275e60e08301846123ef565b9998505050505050505050565b6000806040838503121561277e57600080fd5b612787836124b1565b946020939093013593505050565b6001600160a01b03861681526127ae602082018661260a565b831515604082015260a0606082015260006127cc60a08301856123ef565b90508260808301529695505050505050565b6000806000606084860312156127f357600080fd5b6127fc846124b1565b9250602084013567ffffffffffffffff81111561281857600080fd5b61282486828701612642565b925050604084013590509250925092565b6020808252825182820181905260009190848201906040850190845b818110156125e85783516001600160a01b031683529284019291840191600101612851565b6000806040838503121561288957600080fd5b612892836124b1565b9150602083013567ffffffffffffffff8111156128ae57600080fd5b6128ba85828601612642565b9150509250929050565b600080600080600080600060e0888a0312156128df57600080fd5b87359650602088013567ffffffffffffffff808211156128fe57600080fd5b61290a8b838c01612642565b975060408a013591508082111561292057600080fd5b61292c8b838c01612642565b965060608a013591508082111561294257600080fd5b61294e8b838c01612642565b955061295c60808b016124b1565b945060a08a0135935060c08a013591508082111561297957600080fd5b506129868a828b01612642565b91505092959891949750929550565b851515815284151560208201526001600160a01b038416604082015260a0606082018190526000906127cc908301856123ef565b600181811c908216806129dd57607f821691505b6020821081036129fd57634e487b7160e01b600052602260045260246000fd5b50919050565b601f821115612a4d57600081815260208120601f850160051c81016020861015612a2a5750805b601f850160051c820191505b81811015612a4957828155600101612a36565b5050505b505050565b815167ffffffffffffffff811115612a6c57612a6c61262c565b612a8081612a7a84546129c9565b84612a03565b602080601f831160018114612ab55760008415612a9d5750858301515b600019600386901b1c1916600185901b178555612a49565b600085815260208120601f198616915b82811015612ae457888601518255948401946001909101908401612ac5565b5085821015612b025787850151600019600388901b60f8161c191681555b5050505050600190811b01905550565b612b1c818361260a565b604060208201819052600090820152606001919050565b6bffffffffffffffffffffffff19606093841b811682529190921b16601482015260280190565b602080825260119082015270446f63746f72206e6f742061637469766560781b604082015260600190565b634e487b7160e01b600052601160045260246000fd5b808202811582820484141761082c5761082c612b85565b8082018082111561082c5761082c612b85565b604081526000612bd860408301856123ef565b90508260208301529392505050565b60008251612bf98184602087016123cb565b9190910192915050565b612c0d818461260a565b60406020820152600061270460408301846123ef565b6020815260006124e860208301846123ef565b600060018201612c4857612c48612b85565b506001019056fea26469706673582212200b42c9f53d34d4140b607afb574a99015758700f7fd9c7cbd9662de36c9a91d264736f6c63430008140033",
  "linkReferences": {},
  "deployedLinkReferences": {}
}